:020000040800F2
:10000000680700209D0E000815040008170400086A
:100010001B0400081F04000823040008000000005F
:10002000000000000000000000000000270400089D
:1000300029040008000000002B0400082D0400081B
:10004000B70E0008B70E0008B70E0008B70E00087C
:10005000B70E0008B70E0008B70E0008B70E00086C
:10006000B70E0008B70E0008B70E0008B70E00085C
:10007000B70E0008B70E0008B70E0008B70E00084C
:10008000B70E0008B70E0008B70E0008B70E00083C
:10009000B70E0008B70E0008B70E0008B70E00082C
:1000A000B70E0008B70E0008B70E0008B70E00081C
:1000B000B70E0008B70E0008B70E0008B70E00080C
:1000C000B70E0008B70E0008B70E0008B70E0008FC
:1000D000B70E0008130E0008B70E0008B70E000890
:1000E000B70E0008B70E0008B70E0008B70E0008DC
:1000F000B70E0008B70E0008B70E0008B70E0008CC
:10010000B70E0008B70E0008B70E0008B70E0008BB
:10011000B70E0008B70E0008B70E0008B70E0008AB
:10012000B70E0008B70E0008B70E0008B70E00089B
:1001300000F002F800F03AF80AA090E8000C8244BF
:100140008344AAF10107DA4501D100F02FF8AFF29C
:10015000090EBAE80F0013F0010F18BFFB1A43F0A5
:1001600001031847E8390000083A0000103A24BF9C
:1001700078C878C1FAD8520724BF30C830C144BF0C
:1001800004680C607047000000230024002500264E
:10019000103A28BF78C1FBD8520728BF30C148BFEA
:1001A0000B6070471FB51FBD10B510BD02F051FDAB
:1001B0001146FFF7F7FF00F0B9F802F06FFD03B446
:1001C000FFF7F2FF03BC00F0C9FD00002DE9F0418C
:1001D00005467F49284603F0EDF8064603F0B6F8D9
:1001E00004460A20B4FBF0F100FB1140303079499D
:1001F00088710A20B4FBF0F00A21B0FBF1F201FB98
:1002000012003030734948716420B4FBF0F00A21C9
:10021000B0FBF1F201FB120030306E4908712E2064
:10022000C870284602F0A4FF06460022134602F0DA
:1002300069FF17D2284602F09BFF06460022664B54
:1002400002F0D0FE0ED24FF47A70B4FBF0F00A2127
:10025000B0FBF1F201FB120030305E4988703020B3
:1002600048700870284602F083FF064600225B4B68
:1002700002F048FF22D2284602F07AFF064600220A
:10028000574B02F0AFFE19D24FF47A70B4FBF0F086
:100290000A21B0FBF1F201FB120030304D498870A9
:1002A00042F21070B4FBF0F00A21B0FBF1F201FB56
:1002B000120030304749487030200870284602F05C
:1002C00057FF06460022474B02F01CFF2BD2284660
:1002D00002F04EFF06460022434B02F083FE22D27C
:1002E0004FF47A70B4FBF0F00A21B0FBF1F201FB9D
:1002F000120030303749887042F21070B4FBF0F0D1
:100300000A21B0FBF1F201FB120030303149487094
:100310003648B4FBF0F00A21B0FBF1F201FB120009
:1003200030302C4908702B48BDE8F0810EB5002410
:1003300000F0AAFC4FF4A06000F0D0FD00F020FA1D
:1003400000F0D3FA0020042308220721009000F0D7
:100350005FF90021084602F03AFC002000F0A5FBFE
:1003600000204FF6E07322A20A210090084600F018
:1003700041FC00204FF6E07322A2642100900A2085
:1003800000F038FC22E001A800F0DAF90546D5B10A
:10039000002416E001A9085D02F0F8FF0746FFF708
:1003A00015FF064600204FF6E073324664210090A8
:1003B000822000F01FFC01A9085D00F010FA601C0B
:1003C000C4B2072CE6DD0A2000F09BFCDBE700004E
:1003D00000007A4400000020000024400000224079
:1003E0000000594000C0584000408F40A0860100E6
:1003F0005468697320697320612043414E2044454D
:100400004D4F21005468652056616C7565206973F5
:100410003A000000704700BFFEE700BFFEE700BFE4
:10042000FEE700BFFEE77047704770477047000067
:100430000CB50020019000906C48006840F48030BA
:100440006A49086000BF6948006800F40030009005
:100450000198401C0190009818B90198B0F5A06F60
:10046000F1D16248006800F4003010B10120009022
:1004700001E0002000900098012843D15C4800680A
:1004800040F010005A4908600846006820F0030058
:1004900008600846006840F0020008605348406861
:1004A000524948600846406848600846406840F441
:1004B000806048600846406820F47C104860084628
:1004C000406840F4E81048600846006840F08070DA
:1004D000086000BF4548006800F000700028F9D0AF
:1004E0004248406820F003004049486008464068A0
:1004F00040F00200486000BF3C48406800F00C003B
:100500000828F9D10CBD10B5FFF792FF10BD10B54A
:100510003648006840F001003449086008464068E9
:10052000344908403149486008460068324908406B
:100530002E4908600846006820F4802008600846BC
:10054000406820F4FE0048604FF41F008860FFF709
:10055000DAFF4FF000602949086010BD10B5002196
:1005600000200022214B5B6803F00C0121B104291B
:1005700006D0082928D107E0214B224C236027E030
:100580001F4B204C236023E0184B5B6803F4701072
:10059000164B5B6803F48032022303EB904022B9D0
:1005A000194B4343174C23600DE0104B5B6803F479
:1005B000003323B1144B4343124C236003E0104B30
:1005C0004343104C236003E00D4B0E4C236000BFEF
:1005D00000BF064B5B68C3F303130C4CE15C094B93
:1005E0001B68CB40074C236010BD00000010024088
:1005F000002002400000FFF8FFFFF6FE08ED00E0DB
:1006000000127A000800002000093D000C000020C4
:100610002DE9F04188B004460D4616461F46DDF828
:1006200038800121042001F0E9FA0121480601F097
:10063000F2FA4FF48050ADF81C0003208DF81E0034
:1006400018208DF81F0007A94B4801F01BF84FF444
:100650000060ADF81C0048208DF81F0007A946482F
:1006600001F010F800208DF816008DF817008DF8B5
:10067000180001208DF8190000208DF81A008DF85F
:100680001B008DF812808DF813408DF814608DF8E2
:100690001550ADF8107004A9384801F02CFB00206B
:1006A0008DF80A008DF80B0001208DF80C00002059
:1006B000ADF80000ADF80200ADF80400ADF806009A
:1006C000ADF8080001208DF80D00684601F09DFB93
:1006D000002008B0BDE8F081F0B585B007460D46B2
:1006E000002412200090019000208DF808008DF861
:1006F00009008DF80A5000BF05E0395D0DF10B00CF
:100700000155601C84B2AC42F7DB69461B4801F01E
:100710006BFC0646002401E0601C84B23146174899
:1007200001F0FAFC18B940F6FF708442F4DB40F6A1
:10073000FF70844202DB012005B0F0BD0020FBE722
:1007400030B585B0054600210C4801F0C5FD10B953
:10075000002005B030BD6A460021084801F039FD8F
:10076000002404E00DF10B00005D2855641C082CEA
:10077000F8D39DF80A00ECE700080140006400404F
:1007800000B585B00121042001F038FA01214807A5
:1007900001F041FA1020ADF8100000208DF8130090
:1007A00003208DF8120004A9214800F06BFF1021EE
:1007B0001F4801F014F800200090019002900220E0
:1007C00003906946002002F084F90121002002F024
:1007D0009DF90021084602F0FAF905B000BD2DE9A7
:1007E000F0470446204602F0D1FD814611494846B3
:1007F00002F0EAFC81464FF08B41484602F0DAFDF8
:10080000824602F0B5FC07464FF066320A4B02F012
:1008100091FA054602F050FA8146484602F096FDEC
:1008200085B22946002002F0D2F9BDE8F087000029
:100830000008014000007A4466660A4008B50121BC
:100840004FF4B07001F0DAF903208DF8020041F2A4
:100850000100ADF8000018208DF803006946A1489A
:1008600000F010FF4FF63370ADF8000069469E4867
:1008700000F008FF4FF68070ADF8000069469B4815
:1008800000F000FF08BD00B597B0022001900020E5
:10089000029005200390002006900490012005900E
:1008A000000707900620089000200A9010200B9067
:1008B00000021190800013900020099001A815906B
:1008C00016900121080201F08CF908A800F0C0FB85
:1008D0000121062000F024FD17B000BD84490880E6
:1008E00070478349891C0880704710B5FFF7A6FF41
:1008F000FFF7C9FFE920FFF7F1FF2020FFF7F1FF25
:100900001120FFF7EBFF4FF4FA7401E0601E84B290
:10091000002CFBDC3A20FFF7E1FF5520FFF7E1FF59
:10092000D120FFF7DBFF0020FFF7DBFF6520FFF79B
:10093000D8FF1F20FFF7D5FFD020FFF7CFFF0720FC
:10094000FFF7CFFF0720FFF7CCFF8020FFF7C9FF9D
:100950003620FFF7C3FF4820FFF7C3FFC120FFF792
:10096000BDFF1020FFF7BDFF1020FFF7BAFF0220E8
:10097000FFF7B7FF0220FFF7B4FFC020FFF7AEFF7D
:100980000020FFF7AEFF3520FFF7ABFF0020FFF799
:10099000A8FF0020FFF7A5FF0120FFF7A2FF02201C
:1009A000FFF79FFFC420FFF799FF0320FFF799FF90
:1009B000C520FFF793FF0120FFF793FFD220FFF739
:1009C0008DFF0120FFF78DFF2220FFF78AFFE72030
:1009D000FFF784FF3820FFF784FFF320FFF77EFF47
:1009E0000820FFF77EFF1220FFF77BFF1220FFF7A2
:1009F00078FF0820FFF775FFC820FFF76FFF012081
:100A0000FFF76FFF5220FFF76CFF3720FFF769FFFA
:100A10001020FFF766FF0D20FFF763FF0120FFF7AF
:100A200060FF0420FFF75DFF5120FFF75AFF77209A
:100A3000FFF757FF0120FFF754FF0120FFF751FF99
:100A40000D20FFF74EFF0820FFF74BFF8020FFF738
:100A500048FF0020FFF745FF2920FFF73FFF10BDAB
:100A600030B504460D462A20FFF738FF2012FFF765
:100A700038FFE0B2FFF735FF1012FFF732FFD0B2B8
:100A8000FFF72FFF2B20FFF729FF2812FFF729FF81
:100A9000E8B2FFF726FF1812FFF723FFD8B2FFF7DF
:100AA00020FF2C20FFF71AFF30BD70B5064640F23C
:100AB000DF1340F23F1200210846FFF7D1FF002468
:100AC0000BE0002504E03046FFF70BFF681C85B201
:100AD000B5F5F07FF7DB601C84B2B4F5A07FF0DBE6
:100AE00070BD0000002001400014014000180140CA
:100AF000FE07006C70B504460D4616462B4622468E
:100B000029462046FFF7ACFF3046FFF7EAFE70BDEE
:100B10002DE9F04704460D4616461F46DDF82080B5
:100B2000B44201DCBD4201DDBDE8F0873B46324600
:100B300029462046FFF794FF301B401C84B2781BE7
:100B4000401C85B20BE0A94602E04046FFF7C9FE13
:100B5000B9F10000A9F101011FFA81F9F5D1201EB8
:100B6000A4F101018CB2EED100BFDDE72DE9F04127
:100B700004460D46174605F1010C1FFA8CF304F1EB
:100B8000010C1FFA8CF2A5F1010C1FFA8CF1A4F1F3
:100B9000010C1FFA8CF0FFF763FF002604E03846D3
:100BA000FFF79FFE701CC6B2092EF8DB211D8AB22A
:100BB000211F88B22B462946FFF752FF002604E08A
:100BC0003846FFF78EFE701CC6B2092EF8DB281DD2
:100BD00083B2281F81B222462046FFF741FF00263C
:100BE00004E03846FFF77DFE701CC6B2092EF8DB24
:100BF000BDE8F0812DE9F05F04460E4615469846A3
:100C00003BE02878203800F0FF0A06F10F0083B29D
:100C1000E01D82B231462046FFF722FF00271FE089
:100C2000184800EB0A1010F807B04FF0000912E066
:100C30000BF08000802803D14046FFF752FE02E00F
:100C40000A98FFF74EFE4FF6FF7000EA4B0B09F1D2
:100C5000010000F0FF09B9F1080FE9DB781CC7B209
:100C6000102FDDDB6D1C04F1080084B2B4F59C7F0D
:100C700003DB002406F1100086B228780028C0D1DA
:100C8000BDE8F09F4C35000810B56FF0040000F08F
:100C900074F92E4800682E49B0FBF1F02D49087018
:100CA0000846007800EB4001C1EBC0104FF6FF7121
:100CB00001EAC0002849088010BD0146254A127883
:100CC0004A434FF0E0235A6100229A611A461269A2
:100CD00042F001021A6100BF4FF0E022106900F0FB
:100CE00001021AB100F48032002AF5D04FF0E02260
:100CF000126922F001024FF0E0231A6100229A618A
:100D000070470146144A12884A434FF0E0235A6163
:100D100000229A611A46126942F001021A6100BF6C
:100D20004FF0E022106900F001021AB100F48032A5
:100D3000002AF5D04FF0E022126922F001024FF0B4
:100D4000E0231A6100229A61704700000800002029
:100D500000127A001C0000201E000020014600BF87
:100D6000704700BF494A128802F04002002AF9D0B9
:100D7000C2B2464B1B1D1A80704710B586B00446A0
:100D8000012144F2040000F039FF4FF40070ADF887
:100D9000140003208DF8160018208DF8170005A9FF
:100DA0003B4800F06FFC4FF48060ADF81400042065
:100DB0008DF8170005A9364800F064FC25208DF851
:100DC000000003208DF801008DF8020001208DF84D
:100DD0000300684600F087F801940020ADF8080091
:100DE000ADF80A00ADF80C00ADF810000C20ADF81D
:100DF0000E0001A9254801F0A0FC012240F2255176
:100E0000224801F032FD0121204801F022FD06B008
:100E100010BD10B540F225511C4801F00BFE10B377
:100E20001A4801F087FDC4B21A48008800F4004057
:100E3000C8B91848008800F4804060B10A2C03D07B
:100E400000201449088020E01248008840F4004047
:100E50001049088019E00D2C06D10E48008840F496
:100E600080400C49088010E00A480088C0F30D005B
:100E700009490C5407480088401C06490880084668
:100E80000088C72801DD0020088010BD003801401F
:100E900000080140240000203C0000200948804751
:100EA00009480047FEE7FEE7FEE7FEE7FEE7FEE74C
:100EB000FEE7FEE7FEE7FEE704480549054A064B64
:100EC000704700000F05000831010008680100208C
:100ED00068070020680300206803002031490143AF
:100EE000314A1160704770B5002100230F22C47889
:100EF00004B32D4C246804F4E064C4F5E064210AD2
:100F0000C1F10403CA40447804FA03F18478144020
:100F100021430901254C0678A155047804F01F05EA
:100F20000124AC4005786D11AD0005F1E025C5F850
:100F3000004109E0047804F01F050124AC401C4D79
:100F40000678761145F8264070BD1A4A0A400243D9
:100F5000154B1B1F1A60704739B1134A121D1268D6
:100F60000243114B1B1D1A6006E00F4A121D126846
:100F700082430D4B1B1D1A607047042808D14FF0A7
:100F8000E021096941F004014FF0E022116107E01E
:100F90004FF0E021096921F004014FF0E0221161D6
:100FA000704700000000FA050CED00E000E400E0EE
:100FB00080E100E080FFFF1F30B943F2DB028100D7
:100FC000A1F1C0410A6005E043F2D2028100A1F123
:100FD000C0410A606FF07042411C8900A1F1C0411C
:100FE0000A608100A1F1C041C1F8042170471028B6
:100FF0000AD118214FF020421166402151664FF06E
:10100000FC319166D16610E01821F74A1160402149
:101010004FF02042C2F884104FF0FC31F24A0832FF
:1010200011604FF02042C2F88C1070471820EE4932
:101030002031086000200906C1F8A4004FF0FC3000
:10104000E94928310860091D0860091D08607047DA
:10105000D0E901121143C268114302691143426988
:10106000114382691143C2691143026A1143426A02
:101070001143826A1143C26A1143026B1143026831
:101080009200A2F1C0421160816808290BD1016869
:101090008900A1F1C041096841F04002016889005E
:1010A000A1F1C0410A60416B0968426B526841EA94
:1010B0000211426B926841EA0221426B928941EA35
:1010C0000241426B128A41EA0251426B127D41EAAF
:1010D0000261426B926911430268521C9200A2F1B4
:1010E000C0421160C16AB1F5804F1BD1816B0968A4
:1010F000826B526841EA0211826B926841EA0221D6
:10110000826B128A41EA0251826B127D41EA0261CE
:10111000826B9269114302689200A2F1C042C2F848
:10112000041107E06FF0704201688900A1F1C0412D
:10113000C1F80421704730B5002100220023446823
:1011400044F0080485682C43C5682C4305692C438A
:10115000456944EA4524856944EA4531C4692468FF
:10116000C5696D6844EA0524C5692D8944EA0544CA
:10117000C5692D7B44EA0562046A2468056A6D68C6
:1011800044EA0524056A2D8944EA0544056A2D7B55
:1011900044EA05630468102C05D14FF02044216611
:1011A000A266E36608E0904C21604FF02044C4F84A
:1011B00088208D4C0C34236030BD016841F0100153
:1011C000426841EA4221826841EA4231864A20323D
:1011D0001160C1680968C268526841EA0221C268A8
:1011E000128941EA0241C268127B41EA02617E4AE9
:1011F00028321160016909680269526841EA0221D6
:101200000269128941EA02410269127B41EA0261E4
:10121000754A2C321160416909684269526841EA95
:1012200002214269128941EA02414269127B41EA84
:1012300002614FF02042C2F8B010704700210160F7
:101240000221416000218160C160016141618161D1
:10125000C16101624FF48051416249008162002105
:10126000C16201630F21426B1160426B5160FF212B
:10127000426B91600F21426BD160426B1161426BF6
:1012800051610021426B91610F21826B1160826B71
:101290005160FF21826B91600F21826BD160826B64
:1012A0001161826B51610021826B91617047102145
:1012B0000160002141608160C16001614161816123
:1012C000FC21C2691160C2695160C2699160C26942
:1012D000D160026A1160026A5160026A9160026A1A
:1012E000D16070470021016041608160FC21C268CB
:1012F0001160C2685160C2689160C268D1600269C1
:10130000116002695160026991600269D1604269AD
:10131000116042695160426991604269D1607047D1
:1013200051B18200A2F1C042126842F00103820072
:10133000A2F1C042136009E08200A2F1C04212682B
:101340002A4B1A408300A3F1C0431A60704799B139
:10135000102808D14FF02042126E42F004024FF0E4
:1013600020431A661DE0204A126842F004024FF042
:101370002043C3F8802014E0102809D14FF0204208
:10138000126E1A4BDB1E1A404FF020431A6608E01B
:10139000154A1268154BDB1E1A404FF02043C3F864
:1013A0008020704748B110492031096841F004019C
:1013B0004FF02042C2F8A01009E00B492031096823
:1013C0000A4AD21E11404FF02042C2F8A0107047C6
:1013D000B9B110280CD14FF02042126E42F04002F9
:1013E0004FF020431A661FE0800000A0FEFF0F00B0
:1013F000724A126842F040024FF02043C3F8802046
:1014000012E0102808D14FF02042126E6C4B1A40A7
:101410004FF020431A6607E0684A1268684B1A408A
:101420004FF02043C3F88020704701460020102968
:1014300003D14FF02042506F02E0604A143210682E
:10144000704710B5F2B1102807D14FF020435B6E02
:101450000B434FF02044636632E0B0F5807F08D143
:10146000564B1B1D1B680B434FF02044C4F88430BF
:1014700026E0524B24331B680B434FF02044C4F842
:10148000A4301DE0102807D14FF020435B6E8B4342
:101490004FF02044636613E0B0F5807F08D1474BDE
:1014A0001B1D1B688B434FF02044C4F8843007E0B9
:1014B000424B24331B688B434FF02044C4F8A430C4
:1014C00010BD10B5024600200023102A03D14FF0B2
:1014D0002044636E09E0B2F5807F03D1374C241DB0
:1014E000236802E0354C2434236803EA01040CB17C
:1014F000012000E0002010BD102807D14FF020424D
:10150000526E8A434FF020435A6613E0B0F5807F55
:1015100008D12A4A121D12688A434FF02043C3F8AB
:10152000842007E0254A243212688A434FF0204382
:10153000C3F8A420704770B50246002000230024A1
:101540000025102A03D14FF02046736E09E0B2F552
:10155000807F03D1194E361D336802E0174E2436C2
:10156000336803EA010403EAD10514B10DB1012087
:1015700000E0002070BD102808D14FF02042526ECC
:1015800022EAD1024FF020435A6615E0B0F5807F81
:1015900009D10A4A121D126822EAD1024FF02043F3
:1015A000C3F8842008E0054A2432126822EAD102F6
:1015B0004FF02043C3F8A42070470000800000A033
:1015C000BFFF0F0010B50446CC48844208D101216A
:1015D000042000F02DFB0021042000F029FB46E050
:1015E000C748844208D10121082000F021FB0021D6
:1015F000082000F01DFB3AE0C248844208D10121D6
:10160000102000F015FB0021102000F011FB2EE04F
:10161000BD48844208D10121202000F009FB0021AF
:10162000202000F005FB22E0B848844208D10121C7
:10163000402000F0FDFA0021402000F0F9FA16E009
:10164000B348844208D10121802000F0F1FA002142
:10165000802000F0EDFA0AE0AE48844207D1012173
:10166000801500F0E5FA0021A01500F0E1FA10BDA8
:1016700010B50121084600F0DBFA0021012000F03E
:10168000D7FA10BD2DE9F0410246002500260020C2
:1016900000230024002791F803C00CF00F0591F8F7
:1016A00003C00CF0100CBCF1000F03D091F802C085
:1016B0004CEA050591F800C0BCF1000F31D0146868
:1016C00000202BE04FF0010C0CFA00F3B1F800C041
:1016D0000CEA03069E4220D183004FF00F0C0CFA57
:1016E00003F7BC4305FA03FC4CEA040491F803C079
:1016F000BCF1280F06D14FF0010C0CFA00FCC2F827
:1017000014C00AE091F803C0BCF1480F05D14FF0B6
:10171000010C0CFA00FCC2F810C0401C0828D1D300
:101720001460B1F800C0BCF1FF0F34DD5468002034
:101730002EE000F1080C4FF0010808FA0CF3B1F8A4
:1017400000C00CEA03069E4221D183004FF00F0C2B
:101750000CFA03F7BC4305FA03FC4CEA040491F8C5
:1017600003C0BCF1280F05D100F1080C08FA0CF8F1
:10177000C2F8148091F803C0BCF1480F07D100F102
:10178000080C4FF0010808FA0CF8C2F81080401C51
:101790000828CED35460BDE8F0814FF6FF71018078
:1017A000022181700421C1707047024600209368B5
:1017B0000B400BB1012000E0002070470146886813
:1017C00080B2704702460020D3680B400BB1012065
:1017D00000E0002070470146C86880B27047016190
:1017E0007047416170470AB1016100E04161704793
:1017F000C16070474FF480320A4382618161826127
:1018000082698269704702460020434B18684FF690
:101810008073184040EA021008433F4B186070473D
:101820003E49C8617047F0B50A46002300240021F4
:10183000002500F00046B6F1004F02D1364EF169A6
:1018400001E0354E7168C0F3034583B200F44016E1
:10185000B6F5401F08D121F070612F4E766826F052
:1018600070662D4F7E6012E000F48016B6F5801F82
:1018700006D1032606FA05F4A14341F0706106E0A3
:10188000460D360103FA06F6B14341F0706122B10C
:10189000460D360103FA06F6314300F00046B6F174
:1018A000004F02D11C4EF16101E01B4E7160F0BD92
:1018B00030B500228B071C0F0F2303FA04F2164BDE
:1018C00008338C1053F824309343134C08348D1094
:1018D00044F8253023468C1053F824308C07240F0D
:1018E00000FA04F423430C4C08348D1044F82530DE
:1018F00030BD0A49DC310860704700000008014033
:10190000000C01400010014000140140001801408B
:10191000001C014000200140000001400000204266
:10192000DF48006840F00100DD4908600846406873
:10193000DC490840DA49486008460068DA4908404E
:10194000D74908600846006820F4802008600846EF
:10195000406820F4FE0048604FF41F008860704724
:10196000CF49096821F48031CD4A116011460968D8
:1019700021F480211160B0F5803F03D0B0F5802FB5
:101980000ED106E0C649096841F48031C44A1160AD
:1019900007E0C349096841F4A021C14A116000E091
:1019A00000BF00BF704710B5014600220023002091
:1019B0004A11012A02D1BA4C236806E0022A02D158
:1019C000B74C236A01E0B64C636A01F01F020124A0
:1019D00094401C400CB1012000E0002010BD38B53F
:1019E000002000900024002500BF3120FFF7DBFF1E
:1019F00005460098401C00900098B0F5A06F01D0FB
:101A0000002DF2D03120FFF7CEFF08B1012400E015
:101A10000024204638BD01460020A14A106820F06D
:101A2000F80040EAC10010607047A04908607047A4
:101A3000024600209A4B586820F47C1042EA0103C9
:101A40001843974B5860704798490866704701469D
:101A50000020934A506820F003000843506070470C
:101A60008F48406800F00C007047014600208C4A07
:101A7000506820F0F0000843506070470146002095
:101A8000874A506820F4E060084350607047014680
:101A90000020834A506820F4605040EAC100506042
:101AA000704729B17E4A527A02437D4B5A7204E054
:101AB0007B4A527A82437A4B5A7270477B49D831BB
:101AC0000860704701460020754A506820F4404085
:101AD0000843506070470021714A20321170704AEB
:101AE00082F82010012802D004280AD104E0012144
:101AF0006B4A2032117005E00521694A20321170CD
:101B000000E000BF00BF7047694908607047644942
:101B1000096A0143624A11627047654944390860A5
:101B2000704730B500210022002400235C4D6D6811
:101B300005F00C0121B1042905D0082923D105E0C5
:101B40005C4D056022E05B4D05601FE0544D6D6803
:101B500005F47012524D6D6805F48034022505EBD2
:101B600092421CB9544D554305600BE04C4D6D68D5
:101B700005F400351DB1504D5543056002E04D4D53
:101B80005543056002E04B4D056000BF00BF444D6A
:101B90006D6805F0F0010909484D6B5C0568DD4092
:101BA00045603F4D6D6805F4E061090A434D6B5C8B
:101BB0004568DD4085603A4D6D6805F46051C90A9D
:101BC0003E4D6B5C4568DD40C560354D6D6805F484
:101BD0004041890B3A4D6B5CC568B5FBF3F5056177
:101BE00030BD29B12E4A526902432D4B5A6104E09F
:101BF0002B4A526982432A4B5A61704729B1284ABD
:101C000092690243264B9A6104E0254A9269824315
:101C1000234B9A61704729B1214AD2690243204B74
:101C2000DA6104E01E4AD26982431D4BDA617047D3
:101C300029B11B4AD2680243194BDA6004E0184A02
:101C4000D2688243164BDA60704729B1144A126990
:101C50000243134B1A6104E0114A12698243104B8C
:101C60001A61704712494039086070470F49C864CB
:101C700070470B49C87170470948406A40F080704E
:101C800007494862704701460020054A92680A40A9
:101C90000AB1012000E000207047014988727047B6
:101CA000001002400000FFF8FFFFF6FE0000424275
:101CB0008004424200127A0000093D002600002004
:101CC0003600002010B50446FE48844209D10121A7
:101CD0004806FFF7BAFF00214FF00070FFF7B5FF8D
:101CE00008E001218806FFF7B0FF00214FF0806077
:101CF000FFF7ABFF10BD30B502460020002314688B
:101D000024F002041460146844F00104146000E03C
:101D10005B1C546804F001041CB94FF6FF74A34225
:101D2000F6D1546804F001040CB900206CE08C7901
:101D3000012C04D1146844F08004146003E014689A
:101D400024F080041460CC79012C04D1146844F090
:101D50004004146003E0146824F0400414600C7A1A
:101D6000012C04D1146844F02004146003E01468CA
:101D700024F0200414604C7A012C04D1146844F03F
:101D80001004146003E0146824F0100414608C7ACA
:101D9000012C04D1146844F00804146003E01468B2
:101DA00024F008041460CC7A012C04D1146844F0A7
:101DB0000404146003E0146824F0040414608C78B4
:101DC000A407CD7844EA05640D7944EA05444D79C9
:101DD00044EA05540D886D1E2C43D461146824F028
:101DE00001041460002300E05B1C546804F001044B
:101DF0001CB14FF6FF74A342F6D1546804F00104FD
:101E00000CB1002000E0012030BD10B50021837A24
:101E1000012202FA03F1AC4A126842F00102AA4B15
:101E20001A60A94A1C3212688A43A74B1C331A60F5
:101E3000027BCAB9A44A0C3212688A43A24B0C3303
:101E40001A604288C38842EA03439F4A4032847A38
:101E500042F834300288838842EA03439A4A403287
:101E6000847A02EBC4025360027B012A19D1964A9C
:101E70000C3212680A43944B0C331A604288038870
:101E800042EA0343904A4032847A42F83430C288AE
:101E9000838842EA03438C4A4032847A02EBC402CC
:101EA0005360C27A3AB9884A121D12688A43864B37
:101EB0001B1D1A6006E0844A121D12680A43824BF9
:101EC0001B1D1A60028932B97F4A143212688A4394
:101ED0007D4B14331A600289012A06D17A4A1432E2
:101EE00012680A43784B14331A60427B012A06D1E8
:101EF000754A1C3212680A43734B1C331A60724ACB
:101F0000126822F00102704B1A6010BD002181712D
:101F1000C171017241728172C1728170C1700321FD
:101F200001710221417101210180704766490968F0
:101F300041F00101644A11601146096843F60E72CE
:101F40009143614A11601146096841EA002111601C
:101F50001146096821F001011160704721B1026842
:101F600042F48032026003E0026822F480320260B0
:101F70007047E1B1026842F0800202604FF4C27221
:101F8000125842F480734FF4C27213504FF4CA7265
:101F9000125842F480734FF4CA7213504FF4D27245
:101FA000125842F480734FF4D27213501BE002684F
:101FB00022F0800202604FF4C272125822F4807341
:101FC0004FF4C27213504FF4CA72125822F4807345
:101FD0004FF4CA7213504FF4D272125822F4807325
:101FE0004FF4D2721350704710B502460020936828
:101FF00003F08063B3F1806F00D110E0936803F0C9
:102000000063B3F1006F01D1012008E0936803F091
:102010008053B3F1805F01D1022000E00420042846
:1020200079D002F5C07303EB00131B6803F00104C1
:1020300002F5C07303EB00131C600B7A7BB94B7A7B
:102040000C8843EA445302F5C07404EB001424687E
:10205000234302F5C07404EB0014236010E00B7AF4
:102060004C6843EAC4034C7A234302F5C07404EB82
:1020700000142468234302F5C07404EB00142360A9
:102080008B7A03F00F038B7202F5C07303EB00131E
:102090005B6823F00F0402F5C07303EB00135C6070
:1020A00002F5C07303EB00135B688C7A234302F5DF
:1020B000C07404EB001463608B7B1C064B7B44EA0A
:1020C000034403E000640040006600400B7B44EAE8
:1020D0000323CC7A234302F5C07404EB0014A360FD
:1020E0008B7C1C064B7C44EA03440B7C44EA0323B0
:1020F000CC7B234302F5C07404EB0014E36002F5CB
:10210000C07303EB00131B6843F0010402F5C073B6
:1021100003EB00131C6010BD10B50246002321B173
:10212000012907D002290FD109E09068F94C00EA93
:1021300004030BE09068F84C00EA040306E09068A2
:10214000F64C00EA040301E0002300BF00BFF44C9A
:10215000181BA34216D007DC83B16FF080601844CF
:1021600070B1022818D111E0B0F5007F10D0ED4C0D
:10217000204448B1B0F5003F0ED10BE002230DE042
:1021800000230BE0002309E0002307E0012305E022
:10219000012303E0012301E0002300BF00BFD8B208
:1021A00010BD21B1012907D002290FD109E08268B1
:1021B00042F0800282600AE0826842F4004282605B
:1021C00005E0826842F40002826000E000BF00BFC8
:1021D000704710B500F5D87303EB01131B6803F0CB
:1021E00004031372137A53B900F5D87303EB011388
:1021F0001B6840F2FF7404EA5353136009E000F5D2
:10220000D87303EB01131B686FF0604404EAD30337
:10221000536000F5D87303EB01131B6803F002034E
:10222000537200F5D87303EB01135B6803F00F03DF
:10223000937200F5D87303EB01135B681B0AD37428
:1022400000F5D87303EB01139B68D37200F5D873C4
:1022500003EB01139B681C0A147300F5D87303EB9E
:1022600001139B681C0C547300F5D87303EB011326
:102270009B681B0E937300F5D87303EB0113DB68A7
:10228000D37300F5D87303EB0113DB681C0A1474D5
:1022900000F5D87303EB0113DB681C0C547400F5D4
:1022A000D87303EB0113DB681B0E937421B9C36869
:1022B00043F02003C36003E0036943F0200303619C
:1022C00010BD21B9C26842F02002C26003E0026979
:1022D00042F02002026170470246002019B9D3681B
:1022E00003F0030006E0012903D1136903F00300A2
:1022F00000E00020704710B502460B4600204FF664
:10230000FF71BBB9146824F0020444F001041460A6
:1023100000E0491E546804F00304012C01D0002998
:10232000F7D1546804F00304012C01D0002032E0FE
:10233000012030E0012B13D1146824F00304146051
:1023400000E0491E546804F003040CB10029F8D1E0
:10235000546804F003040CB100201CE001201AE0D2
:10236000022B17D1146824F0010444F00204146015
:1023700000E0491E546804F00304022C01D0002937
:10238000F7D1546804F00304022C01D0002002E0CD
:10239000012000E0002010BD014600200A6822F064
:1023A000010242F002020A604A6802F00302022AB5
:1023B00000D10120704701464FF6FF7200200B68E4
:1023C00023F002030B6000E0521E4B6803F002038F
:1023D000022B01D1002AF7D14B6803F00203022B34
:1023E00000D001207047014600208A6902F0700089
:1023F0007047014600208A69100E70470146002090
:102400008A69C2F3074070471AB143690B434361BD
:1024100002E043698B434361704710B502460020D8
:1024200001F4700343B19369C1F3130423400BB16A
:1024300001202DE000202BE001F0807343B15368B0
:10244000C1F3130423400BB1012021E000201FE061
:1024500001F0006343B19368C1F3130423400BB14F
:10246000012015E0002013E001F0007343B1D368B0
:10247000C1F3130423400BB1012009E0002007E061
:102480001369C1F3130423400BB1012000E00020C5
:1024900010BD0022244B994202D10023836111E038
:1024A000C1F3130201F000730BB1C2600AE001F046
:1024B00080630BB1026105E001F000630BB1826043
:1024C00000E0426070470246002002EA01030BB1BF
:1024D000012000E00020704770B504460D4600263C
:1024E00060692840002872D0B5F5807F69D01DDC76
:1024F000082D42D006DC012D2DD0022D31D0042D27
:102500007FD134E0102D3ED0202D42D0402D78D107
:1025100045E0000003000004000300080000031071
:10252000000100080001FFF77000F030B5F5004F22
:1025300061D009DCB5F5007F4AD0B5F5806F4DD08C
:10254000B5F5006F5DD150E0B5F5803F2DD0B5F504
:10255000003F56D12FE0A0685549FFF7B4FF06466B
:1025600051E0E0680321FFF7AEFF06464BE0E0686C
:102570000821FFF7A8FF064645E0E0681021FFF7B5
:10258000A2FF06463FE020690321FFF79CFF0646B5
:1025900039E020690821FFF796FF064633E02069FD
:1025A0001021FFF790FF06462DE060680821FFF735
:1025B0008AFF064627E060681021FFF784FF064681
:1025C00021E0A0690121FFF77EFF06461BE01BE02A
:1025D000A0690221FFF777FF064614E0A0690421F5
:1025E000FFF771FF06460EE00BE0A0697021FFF7D0
:1025F0006AFF064607E060680421FFF764FF0646AD
:1026000001E0002600BF00E00026304670BDB1F5B5
:10261000007F3AD00FDC202928D006DC01291CD00D
:1026200004291DD0082940D11DE0402921D0B1F551
:10263000807F3AD126E0B1F5004F31D006DCB1F50C
:10264000806F25D0B1F5006F2FD124E0B1F5803F28
:1026500012D0B1F5003F28D111E0154A826025E083
:102660000822C26022E01022C2601FE0082202613C
:102670001CE01022026119E00822426016E01022DC
:10268000426013E00422426010E0042242600DE048
:10269000042242600AE0002282610422426005E0D6
:1026A000002282610422426000E000BF00BF704748
:1026B0000101010010B50446FB48844209D1012103
:1026C0008803FFF7B5FA00214FF48040FFF7B0FA16
:1026D00032E0F648844209D101214804FFF7B5FAF7
:1026E00000214FF40030FFF7B0FA25E0F0488442B3
:1026F00009D101218804FFF7A8FA00214FF48020B6
:10270000FFF7A3FA18E0EB48844209D10121C8047D
:10271000FFF79BFA00214FF40020FFF796FA0BE039
:10272000E548844208D101210805FFF78EFA00210F
:102730004FF48010FFF789FA10BD2DE9F04786B0FD
:1027400005460E460024A24600BFA1460027B089D8
:1027500000B100BF2F462C8A4CF6FF700440F08871
:1027600004432C82AC894EF6F3100440B0883189C2
:102770000843718908430443AC81AC8A4FF6FF409B
:102780000440B0890443AC8201A8FFF7CAF9C648E7
:10279000874202D1DDF810A001E0DDF80CA0A88985
:1027A00000F4004040B10AEBCA0000EB0A103168A7
:1027B0004900B0FBF1F807E00AEBCA0000EB0A1091
:1027C00031688900B0FBF1F86420B8FBF0F0040137
:1027D0002009642101FB1089A88900F4004040B160
:1027E000322000EBC900B0FBF1F000F00700044319
:1027F00008E0322000EB09106421B0FBF1F000F09A
:102800000F0004432C8106B0BDE8F0874FF4165149
:10281000016000218180C18001810C214181002162
:102820008181704710B502460020108A4FF2FF03E5
:1028300018400B884C8823438C882343CC8823433F
:102840001843108210BD0021018041808180C18029
:10285000704721B1828942F40052828104E082896A
:102860004DF6FF731A4082817047F0B5034600248D
:1028700000260025002040F66A17B94200D100BFAB
:102880001846C1F3421401F01F06012707FA06F5A6
:10289000012C01D10C3004E0022C01D1103000E0F9
:1028A00014301AB107682F43076002E00768AF438E
:1028B0000760F0BD1AB1838A0B43838202E0838AEA
:1028C0008B4383827047028A4FF6F0731A4002826C
:1028D000028A0A430282704782894FF2FF731A40CC
:1028E000828182890A438281704721B1828942F0C4
:1028F0000202828104E082894FF6FD731A408281D0
:102900007047028A4FF6DF731A400282028A0A4336
:102910000282704721B1028A42F48042028204E0BE
:10292000028A4BF6FF731A4002827047C1F3080215
:102930008280704701468888C0F30800704781890B
:1029400041F0010181817047028BD2B20283028B78
:1029500042EA012202837047028B02F47F42028323
:10296000028B0A430283704721B1828A42F020021F
:10297000828204E0828A4FF6DF731A4082827047B7
:1029800021B1828A42F01002828204E0828A4FF6EC
:10299000EF731A408282704721B1828A42F00802A6
:1029A000828204E0828A4FF6F7731A40828270476F
:1029B00021B1828942F40042828103E08289C2F31C
:1029C0000E028281704721B1828A42F400628282C3
:1029D00004E0828A4FF2FF731A4082827047828A33
:1029E0004FF6FB731A408282828A0A4382827047C2
:1029F00021B1828A42F00202828204E0828A4FF68A
:102A0000FD731A408282704702460020B1F5007FB4
:102A100000D100BF13880B400BB1012000E0002063
:102A2000704701F40072B2F5007F00D100BFCA43C5
:102A30000280704770B50246002400230025002064
:102A400040F66A16B14200D100BFC1F3421501F051
:102A50001F03012606FA03F3012D02D196893340A4
:102A600006E0022D02D1168A334001E0968A3340F7
:102A70000C12012606FA04F41688344013B10CB186
:102A8000012000E0002070BD10B50022002340F6B8
:102A90006A14A14200D100BF0A1201249440A3B2DB
:102AA000DC43048010BD00000038014000440040B9
:102AB00000480040004C00400050004010B501218B
:102AC0004807FFF7C2F800214FF00050FFF7BDF8AC
:102AD00010BD30B5002200235A4C226840F6FE7427
:102AE0008440A243D1E900452C438D682C43CD6836
:102AF00044EA050303FA00F42243524C226030BD3D
:102B00000021016041608160C160704739B14D4A68
:102B10001268012383401A434A4B1A6006E0494A6F
:102B20001268012383409A43464B1A60704741B1B3
:102B3000444A12684FF4805383401A43414B1A6051
:102B400007E0404A12684FF4805383409A433D4B5C
:102B50001A60704710B551B13A4A121D1268040943
:102B60000123A3401A43374B1B1D1A6009E0354A65
:102B7000121D126804090123A3409A43314B1B1D07
:102B80001A6010BD40B12F49091D096841F00301C9
:102B90002C4A121D116007E02A49091D096821F01D
:102BA0000301284A121D1160704710B53AB1254B38
:102BB0001B6801FA00F42343224C236006E0214BFA
:102BC0001B6801FA00F4A3431E4C236010BD08B536
:102BD000002200921B4A009200F10802009B1A4456
:102BE0000092009A116008BD08B500220092154AB3
:102BF000009200F11402009B1A440092009A1160A6
:102C000008BD30B500240023082802D142EA01247F
:102C100001E042EA01440B4B00F120052B441C600B
:102C200030BD08B5014600200090064800902C20D9
:102C300000EB9100009A104400900098006880B268
:102C400008BD00000074004070477047704770472F
:102C50007047754600F02CF8AE46050069465346AD
:102C600020F00700854618B020B5FEF725F9BDE82D
:102C700020404FF000064FF000074FF000084FF0E3
:102C8000000B21F00701AC46ACE8C009ACE8C00974
:102C9000ACE8C009ACE8C0098D46704710B50446E1
:102CA000AFF300802046BDE81040FDF788BA000071
:102CB000004870470401002021F00042A2F1605258
:102CC000B2F5801F01F0004328BFD2F17F6C0BD911
:102CD0005FEA001C43EAC20242EB507018BF704723
:102CE00028BF20F001007047B2F5801FBCBF184616
:102CF00070474FEA410C1CF5001F02D2084600F055
:102D000020BC70B500F0AAF900000089FFF7F6BFFB
:102D10004FF00040A0F580007047491058BFC1F146
:102D200040415B1058BFC3F140438B42EFF300803A
:102D3000704700002DE9C04130B4DFF8A0C23CEA82
:102D4000111418BF3CEA131400F0EC8081EA03056B
:102D50001CEA111444EAD57418BF1CEA131500F0DC
:102D6000C780A4EB05044FF0004545EAC12145EAC0
:102D7000C32341EA505143EA525304F17F7499420C
:102D800004F500344FEAC0204FEAC22208BF904247
:102D900000F09C804FEA13650FF24016765D4FEA13
:102DA000134506FB05F7C7F1807706FB07F74FEAE7
:102DB000D737A7FB03687642C8F58038A7FB06CE55
:102DC00038BFA8F1010807FB08E64FF0000EA6FB8C
:102DD000028CE6FB03CEDCF1000CCEF1004E38BFD6
:102DE000AEF1010EA6FB0C584FF000074FF00005A6
:102DF000E6FB0E87A1FB08C6A0FB07CE16EB0E066E
:102E000045F10005E1FB076515F1E04E7EBFA4F535
:102E100080345FEA46066D4116F1800745F10005F2
:102E20004FEA17274FEA066647EA0567A6F1DE462E
:102E3000B6F1805F4FEA15251FD9384624F0010C02
:102E400005EBC471BCF1FE6F01EB0C1102D8F0BCB4
:102E5000BDE8008124425CBF01F5801E9EEAC47F6C
:102E600002D4F0BCBDE80081244238D4F0BCA1F10A
:102E7000C041BDE8004100F03FB94FEAD22242EA2A
:102E800043524FEAD323A7FB02864FEAD02040EA01
:102E9000415007FB03661EEA0E0F4FEAD12105FBE6
:102EA000026658BFA6EB0056B6EB00564FEA520E2C
:102EB0004EEAC37E18EB0E0E56EB530EBDD518EB43
:102EC00002085E417F1C55F10005B6E74FF48015FE
:102ED0004FF000074FF000064FF00008ADE7F0BCE0
:102EE0004FF0000001F1C04101F00041BDE8008158
:102EF00011EA0C1F0CEA131500D00CE013EA0C1FAA
:102F000000F025804FF00000F0BC81EA030101F0E1
:102F10000041BDE80081F0BCBDE8004181EA030149
:102F200000F0EAB8F0BCBDE8004170B500F096F8DA
:102F3000097EFC3E00F007B881EA03014FF0000073
:102F400001F00041704781EA030100F0D5B8F0BC00
:102F5000BDE800414FF0000021497047FFFDFBF93B
:102F6000F7F5F4F2F0EEEDEBE9E8E6E4E3E1E0DEBC
:102F7000DDDBDAD8D7D5D4D3D1D0CFCDCCCBCAC82E
:102F8000C7C6C5C4C2C1C0BFBEBDBCBBBAB9B8B755
:102F9000B6B5B4B3B2B1B0AFAEADACABAAA9A8A848
:102FA000A7A6A5A4A3A3A2A1A09F9F9E9D9C9C9B16
:102FB0009A999998979796959594939392919190C1
:102FC0008F8F8E8E8D8C8C8B8B8A89898888878752
:102FD0008685858484838382828181800000FF07C7
:102FE0000000F87F51EA030C17D41CF5801F58BF6E
:102FF000BCF5801F00F10680994218BF704708BFDA
:103000009042704707D711F5801F58BF13F5801FF6
:1030100019D499427047894270471CF5801F08D522
:10302000BCF5801FF7D58B4218BF704708BF82429E
:1030300070474FF4001C1CEB410F38BF1CEB430FD3
:1030400001D28B42704770B500F008F89224490015
:103050004FF000514FF08053FFF75FBE0EF1020EAC
:103060002EF0030E5EF8046B364205D4012A43EBC2
:10307000030515F5001F12D8012841EB010C1CF5C2
:10308000001F0CD80ED14FEAD17C15F5001F0CEBB8
:103090004C0C0CF1020C08BF4CEBD37C04E04FF05D
:1030A000080C01E04FEAD37C0CEB4C0526FA05F640
:1030B00006F00706B6F1040C06D20EEB860CBDE84E
:1030C00070404CF0010C6047DFE80CF0090B020285
:1030D0004FF000414FF00000A1F5002170BD1946EE
:1030E0001046012851EB010418BFD4F5001484BF29
:1030F000002001F0004170BD0808A0F500114FEA62
:103100003101704753EA010C17D41CF5801F58BFDA
:10311000BCF5801F00F106808B4218BF704708BFC6
:103120008242704707D713F5801F58BF11F5801FE3
:1031300019D48B4270479B4270471CF5801F08D5FD
:10314000BCF5801FF7D5994218BF704708BF904261
:1031500070474FF4001C1CEB430F38BF1CEB410FB2
:1031600001D2994270470FB40CBC03BCFFF76BBF90
:1031700043004FEAD30C4FEA3C0C43401FBF4007CB
:103180000CF1605113F0FE4F70471CF0006F03D13B
:1031900000200CF0004170470CF0004343EA5070EF
:1031A00010B540EACC0000F086F900BF00000092A4
:1031B0004FEA0001FFF7A0BF4FF000414FF00000C1
:1031C000A1F50021704700004FF47F0C1CEAD012DB
:1031D0001EBF1CEAD11392EA0C0F93EA0C0F00F009
:1031E000858090EA010F48BF42F4807240F4000CE1
:1031F00041F400002CF07F4120F07F4000B5814277
:10320000A2EB03020FF2081CACEB504EC0F1000021
:103210009EF800E04FEA4E0E00FB0EFC38BF49005E
:103220004FEA2C1C02F5FA020CFB0EF34FEACE1EFD
:103230004FEA112C4FEAC1210EEB635E42EB2242B2
:103240000EFB0CFC4FEA1C5300FB03114FEA112C40
:103250004FEA01310EFB0CFC4FEADC4C00FB0C1179
:10326000C14228BF09184CEB03335DF804EB10EBA7
:10327000410143EBC250B2F57C0F38BF704729D5EE
:1032800012F0F00F1CBF00F1C04000F0004070478A
:10329000008182838485868788898B8C8D8E8F912F
:1032A0009293959697999A9C9D9FA0A2A3A5A7A853
:1032B000AAACAEB0B2B3B5B7B9BCBEC0C2C5C7C97F
:1032C000CCCED1D4D7D9DCDFE2E6E9ECF0F3F7FAE3
:1032D000FE0000004FEA400C0CF1807CBCF17E4FF8
:1032E00028BF7047B0F1C04000F02BB990EA010F41
:1032F0000CEAD11348BF42F48072624538BF63457F
:1033000007D213F47F0F16D080EA010000F00040CE
:10331000704710B500F0CFF8097EFC3E00F005B80C
:1033200080EA010000F00040704780EA010000F0F0
:10333000004000F006B912F47F0F04BF0248704746
:1033400080EA010000F0FDB80000C07FC10DD1F19E
:103350009E0206DB4FEA002343F0004323FA02F00B
:103360007047004207D54FEA4001B1F1FE4F02D24B
:103370004FF00000704710B500F09DF8499224808E
:10338000002070476FEA200070470000B0FA80F319
:1033900010FA03F2C3F19D030AD0D90501EB122004
:1033A000530638BF704700F1010008BF20F001004C
:1033B000704700004FF47F0C1CEAD0121EBF1CEABD
:1033C000D11392EA0C0F93EA0C0F00F0478090EAB9
:1033D000010F48BF42F480724FF0004C4CEA0020CD
:1033E0004CEA012102EB0302A0FB0113A2F500024B
:1033F000002918BF43F001035B0028BF4FEA3303E5
:1034000042EB22425FEA132C4CEBC2502EBFBCEBC6
:10341000436FB2F57C0F70474FEA036CBCF1004F6D
:1034200008BF20F00100B2F57C0F38BF70470BD504
:1034300082F0FF0212F5803FC8BF704700F1C04024
:10344000D8BF00F00040704700F5000C5FEA4C0C5C
:1034500048BF7047B0F1C04000F073B890EA010F68
:103460000CEAD11348BF42F48072624538BF63450D
:1034700004D280EA010000F00040704710B500F06F
:103480001AF800BF8900013E00F007B800F009B843
:103490005FEA410C5FEA1C6C08D080EA010000F092
:1034A00050B85FEA400C5FEA1C6CF6D14FF0004068
:1034B000A0F5800070470EF1020E2EF0030E5EF8AC
:1034C000044B244204D44FEA4102B2F17F4F11D899
:1034D0004FEA4003B3F17F4F0CD80ED14FEAD07CB6
:1034E000B2F17F4F0CEB4C0C0CF1020C08BF4CEB13
:1034F000D17C04E04FF0080C01E04FEAD17C0CEBEA
:103500004C0324FA03F404F00704B4F1040C06D2CB
:103510000EEB840CBDE810404CF0010C6047DFE876
:103520000CF0070802024FF00040A0F5800010BD2B
:103530000846420018BFD2F1807288BF00F00040F8
:1035400010BDFF2141EAD050C005704700000000C7
:10355000000000000000000000000000000000105B
:10356000101010101010000018180000001236245F
:1035700048000000000000000000000000000024DF
:103580002424FE484848FE484848000000001038FF
:10359000545450301814145454381010000000447F
:1035A000A4A8A8A8541A2A2A2A440000000000301F
:1035B000484848506EA494888976000000606020D6
:1035C000C00000000000000000000000000204082D
:1035D00008101010101010080804020000402010FD
:1035E000100808080808081010204000000000001B
:1035F0001010D63838D6101000000000000000006F
:1036000010101010FE10101010000000000000003C
:103610000000000000000000606020C0000000000A
:10362000000000007F00000000000000000000001B
:1036300000000000000000006060000000000102C7
:103640000204040808101020204040000000001868
:10365000244242424242424224180000000000102C
:103660007010101010101010107C00000000003CB2
:103670004242420404081020427E00000000003C48
:1036800042420418040202424438000000000004D0
:103690000C14242444447E04041E00000000007E18
:1036A0004040405864020242443800000000001CC0
:1036B0002440405864424242241800000000007E2A
:1036C0004444080810101010101000000000003CC6
:1036D0004242422418244242423C000000000018AA
:1036E00024424242261A0202243800000000000050
:1036F000000018180000000018180000000000006A
:103700000000001000000000001010200000000267
:1037100004081020402010080402000000000000EF
:103720000000FE000000FE0000000000000000405D
:103730002010080402040810204000000000003C93
:103740004242620204080800181800000000003815
:10375000445AAAAAAAAAB4424438000000000010A1
:1037600010182828243C444242E70000000000F8DA
:10377000444444784442424244F800000000003E81
:10378000424280808080804244380000000000F87F
:10379000444242424242424244F80000000000FCDF
:1037A000424848784848404242FC0000000000FC83
:1037B000424848784848404040E000000000003C53
:1037C00044448080808E844444380000000000E738
:1037D000424242427E42424242E700000000007CF8
:1037E0001010101010101010107C00000000003E8F
:1037F0000808080808080808080888F0000000EE13
:10380000444850705048484444EE0000000000E036
:10381000404040404040404042FE0000000000EE7A
:103820006C6C6C6C5454545454D60000000000C7A7
:10383000626252524A4A4A4646E20000000000389C
:10384000448282828282828244380000000000FC2E
:10385000424242427C40404040E0000000000038CC
:10386000448282828282B2CA4C380600000000FC88
:103870004242427C4848444442E300000000003E8B
:103880004242402018040242427C0000000000FE38
:10389000921010101010101010380000000000E7F7
:1038A0004242424242424242423C0000000000E7A3
:1038B000424244242428281810100000000000D69A
:1038C00092929292AAAA6C4444440000000000E73D
:1038D000422424181818242442E70000000000EEB7
:1038E0004444282810101010103800000000007EFA
:1038F000840408081020204242FC0000001E101022
:10390000101010101010101010101E000000404079
:10391000202010101008080404040202007808088F
:10392000080808080808080808087800001C220091
:103930000000000000000000000000000000000087
:103940000000000000000000000000FF0000000078
:103950000000000000000000606020C000000000C7
:103960000000003C421E2242423F0000000000C016
:103970004040405864424242645800000000000049
:103980000000001C22404040221C000000000006F5
:103990000202021E22424242261B000000000000DA
:1039A0000000003C427E4040423C00000000000F0E
:1039B0001110107E10101010107C0000000000008C
:1039C0000000003E444438403C42423C000000C0FD
:1039D0004040405C6242424242E70000000000304A
:1039E0003000007010101010107C00000000000C5F
:1039F0000C00001C0404040404044478000000C00B
:103A00004040404E4850684844EE000000000070BE
:103A10001010101010101010107C0000000000009A
:103A2000000000FE4949494949ED0000000000003E
:103A3000000000DC6242424242E700000000000059
:103A40000000003C42424242423C000000000000B4
:103A5000000000D864424242447840E00000000088
:103A60000000001E22424242221E02070000000007
:103A7000000000EE3220202020F8000000000000AE
:103A80000000003E42403C02427C0000000000007A
:103A90000010107C10101010100C0000000000002E
:103AA000000000C642424242463B000000000000C7
:103AB000000000E74224242810100000000000004D
:103AC000000000D79292AAAA44440000000000001F
:103AD0000000006E24181818247600000000000072
:103AE000000000E742242428181010E00000000025
:103AF0000000007E44081010227E0000000000003C
:103B000000000000000000000000000000000000B5
:103B100000000000000000000000000000000000A5
:103B20000000000000000000000000000000000095
:103B30000000000000000000000000000000000085
:103B40000000000000000000000000006C3B0008C6
:103B5000000000203C0000006C010008A83B0008A9
:103B60003C0000202C070000880100080000000035
:103B70000000000000A24A04000000000000000055
:103B8000010203040607080900000000000000000D
:103B90000000000000000102030401020304060704
:083BA0000809020406080000F8
:0400000508000131BD
:00000001FF
